:020000001628C0
:0E0006008312031323088A00220882000800D8
:1000140003208A110A128000840AA20A0319A30A7F
:08002400F003031D0A28080087
:10002C0083120313A001A101831688018312880196
:10003C00A001A10180302106F00080307002031D68
:10004C0029286430200203185B280C3088001A30F1
:10005C00FC00F830FD00FD0B3128FC0B31280000B2
:10006C00063088001A30FC00F830FD00FD0B3C28EF
:10007C00FC0B3C280000033088001A30FC00F830E0
:10008C00FD00FD0B4728FC0B4728000009308800B9
:10009C001A30FC00F830FD00FD0B5228FC0B5228E6
:1000AC000000A00A0319A10A20280630FB00133017
:1000BC00FC00AD30FD00FD0B6128FC0B6128FB0B37
:1000CC00612800000000A001A10180302106F00091
:1000DC0080307002031D7428643020020318A62897
:1000EC00033088001A30FC00F830FD00FD0B7C2832
:1000FC00FC0B7C280000063088001A30FC00F8301D
:10010C00FD00FD0B8728FC0B872800000C308800B5
:10011C001A30FC00F830FD00FD0B9228FC0B9228E5
:10012C000000093088001A30FC00F830FD00FD0B8F
:10013C009D28FC0B9D280000A00A0319A10A6B281E
:10014C000630FB001330FC00AD30FD00FD0BAC287D
:10015C00FC0BAC28FB0BAC28000000001E28B528BB
:02400E004A2F37
:00000001FF
