:020000001628C0
:0E000600831203132B088A002A0882000800C8
:1000140003208A110A128000840AAA0A0319AB0A6F
:08002400F003031D0A28080087
:10002C003F3083120313A0000630A1005B30A20006
:10003C004F30A3006630A4006D30A5007D30A600C3
:10004C000730A7007F30A8006F30A900AC01AD01CC
:10005C00FF308316880086018701831287017F3069
:10006C00860007108710081857280330FB0008304B
:10007C00FC007730FD00FD0B4128FC0B4128FB0BED
:10008C0041280818572880302D06F0008030700267
:10009C00031D522809302C0203185728AC0A0319E7
:1000AC00AD0A881876280330FB000830FC00773046
:1000BC00FD00FD0B5F28FC0B5F28FB0B5F288818ED
:1000CC0076288030F00080302D067002031D7028D9
:1000DC002C08003C031876280130AC02031CAD033D
:0E00EC002C08203E84000008860037287C285F
:02400E004A2F37
:00000001FF
