:020000001628C0
:0E0006008312031321088A00200882000800DC
:1000140003208A110A128000840AA00A0319A10A83
:08002400F003031D0A28080087
:10002C0083160313880183128801FF308316860020
:10003C008312061C2F28D030FC00C930FD00FD0BAC
:10004C002528FC0B252800000000061C2F280C304E
:10005C008800861C3F28D030FC00C930FD00FD0B09
:10006C003528FC0B352800000000861C3F28063084
:10007C008800061D4F28D030FC00C930FD00FD0B58
:10008C004528FC0B452800000000061D4F280330B6
:10009C008800861D5F28D030FC00C930FD00FD0BA8
:1000AC005528FC0B552800000000861D5F280930E0
:0600BC0088001E286028E8
:02400E004A2F37
:00000001FF
