:020000001628C0
:0E000600831203132B088A002A0882000800C8
:1000140003208A110A128000840AAA0A0319AB0A6F
:08002400F003031D0A28080087
:10002C00C03083120313A000F930A100A430A20049
:10003C00B030A3009930A4009230A5008230A60005
:10004C00F830A7008030A8009030A900AC01AD01B9
:10005C0083168801860109308312AC000030AD0094
:10006C0080302D06F00080307002031D3F280030D8
:10007C002C02031C65282C08203E840000088600F6
:10008C000B30FB002630FC005D30FD00FD0B4C28D6
:10009C00FC0B4C28FB0B4C280000000000302D06FC
:1000AC00031D5A2800302C06031D60280A30AC00B2
:1000BC000030AD000130AC02031CAD0336286528BE
:02400E004A2F37
:00000001FF
