:020000001628C0
:0E000600831203132B088A002A0882000800C8
:1000140003208A110A128000840AAA0A0319AB0A6F
:08002400F003031D0A28080087
:10002C003F3083120313A0000630A1005B30A20006
:10003C004F30A3006630A4006D30A5007D30A600C3
:10004C000730A7007F30A8006F30A900AC01AD01CC
:10005C00AE01AF01B001B101B201B301831686014B
:10006C008701FF30880083128601870188185A287F
:10007C000230FB000430FC00BA30FD00FD0B4428BC
:10008C00FC0B4428FB0B4428000088185A28AC0AA7
:10009C000319AD0A00302D06031D56280A302C0614
:1000AC00031D5A28AC01AD01081978280230FB0059
:1000BC000430FC00BA30FD00FD0B6228FC0B6228FA
:1000CC00FB0B6228000008197828AE0A0319AF0A46
:1000DC0000302F06031D74280A302E06031D7828C5
:1000EC00AE01AF01881996280230FB000430FC00E9
:1000FC00BA30FD00FD0B8028FC0B8028FB0B802800
:10010C00000088199628B00A0319B10A003031068C
:10011C00031D92280A303006031D9628B001B10148
:10012C00081AB4280230FB000430FC00BA30FD0081
:10013C00FD0B9E28FC0B9E28FB0B9E280000081A2A
:10014C00B428B20A0319B30A00303306031DB028D1
:10015C000A303206031DB428B201B30100302D065B
:10016C00031DBA2801302C06031DD92800302F0698
:10017C00031DC22803302E06031DD928003031067A
:10018C00031DCA2800303006031DD9280030330661
:10019C00031DD22802303206031DD92807168712F8
:1001AC0007178717022900302D06031DDF2808309A
:1001BC002C06031DFE2800302F06031DE7280930EE
:1001CC002E06031DFE2800303106031DEF280230D9
:1001DC003006031DFE2800303306031DF7280030BF
:1001EC003206031DFE2807168716071387130229EC
:1001FC00071287120713871307102C08203E840060
:10020C00000886001A30FC00F830FD00FD0B0C29AC
:10021C00FC0B0C290000071487102E08203E8400CC
:10022C00000886001A30FC00F830FD00FD0B1C297C
:10023C00FC0B1C290000871407113008203E840099
:10024C00000886001A30FC00F830FD00FD0B2C294C
:10025C00FC0B2C290000071587113208203E840066
:10026C00000886001A30FC00F830FD00FD0B3C291C
:0C027C00FC0B3C29000087153C2843299E
:02400E004A2F37
:00000001FF
