:020000001628C0
:0E0006008312031333088A00320882000800B8
:1000140003208A110A128000840AB20A0319B30A5F
:08002400F003031D0A28080087
:10002C0083120313A001A101A201A301C030A400FB
:10003C00F930A500A430A600B030A7009930A80074
:10004C009230A9008230AA00F830AB008030AC00AE
:10005C009030AD00AE01AF01B001B1018316870144
:10006C00070886008312870107088600FF30831675
:10007C0088008312081C5B28D030FC00C930FD00BE
:10008C00FD0B4628FC0B462800000000081C5B28D2
:10009C00AE0A0319AF0A00302F06031D57280A3089
:1000AC002E06031D5B28AE01AF01881C7628D030CC
:1000BC00FC00C930FD00FD0B6128FC0B6128000021
:1000CC000000881C7628B00A0319B10A00303106EA
:1000DC00031D72280A303006031D7628B001B101C9
:1000EC00081D9128D030FC00C930FD00FD0B7C2888
:1000FC00FC0B7C2800000000081D9128A00A0319A5
:10010C00A10A00302106031D8D280A302006031D8C
:10011C009128A001A101881DAC28D030FC00C93069
:10012C00FD00FD0B9728FC0B972800000000881D94
:10013C00AC28A20A0319A30A00302306031DA82821
:10014C000A302206031DAC28A201A30107142E08B5
:10015C00243E8400000886000D30FC00FB30FD00BE
:10016C00FD0BB628FC0BB628000000000710871406
:10017C003008243E8400000886000D30FC00FB3063
:10018C00FD00FD0BC728FC0BC728000000008710E2
:10019C0007152008243E8400000886000D30FC0062
:1001AC00FB30FD00FD0BD828FC0BD828000000000C
:1001BC00071187152208243E8400000886000D30A4
:1001CC00FC00FB30FD00FD0BE928FC0BE9280000CE
:0801DC00000087113F28F12803
:02400E004A2F37
:00000001FF
