:02000000532982
:1000060083120313F801F9011030FC00710DF80D8D
:10001600F90D7408F8027508031C750FF902031828
:100026001B287408F80775080318750FF9070310DD
:0A003600F00DF10DFC0B0928080085
:1000400083120313DD0105305D0203182E285D08BD
:100050005C07840020308000DD0A23285D085C07EF
:1000600084008001DD035D085C07DE000A30F400D7
:10007000F5015A08F0005B08F10003207808F00051
:100080007908F1003030F0075E08840070088000C5
:100090000A30F400F5015A08F0005B08F100032073
:1000A0007008DA007108DB0000307106031D5A2861
:1000B00000307006031D5D285F28DD03332808002B
:1000C00083160313981866280000602883125A08C4
:0400D000990008008B
:0E00D400831203134D088A004C0882000800B6
:1000E2000E3083120313FD00FD0B7528000008007B
:1000F200831603139816903083129800831687177D
:10010200071383128C1E88281A08F0008228080020
:1001120083120313D601D7015108D8005208D9001F
:1001220080305206F00080307002031D9A280030A1
:1001320051020318A8280130D6000030D700510818
:10014200003CD8005208031C013ED901D9025808CC
:10015200DA005908DB005308DC0020200630D40006
:100162000030D5005508003C031DB9285408003C56
:100172000318D42854085307F20001305402F00047
:100182000030031C013E5502F10070085307840041
:100192000008F00072088400700880000130D40268
:1001A200031CD503B328530884002030800056086E
:1001B20057040319F228D401D501540853078400C7
:1001C2000008203A031DE928D40A0319D50ADE28BB
:1001D2000130D402031CD5035408530784002D3088
:0401E2008000080091
:1001E600831203139F01C0309F042F09F00070088B
:1001F60083169F051F179F1783125108F000F00DF5
:100206007010F00D7010F00D701070089F041F1420
:1002160071201F151F1D112900000D291F101E0812
:10022600F100F00183161E08F0040030F104080006
:1002360083120313D301510884000008D200520828
:10024600003A031930295208DA006020D30A53080D
:0C025600510784000008D2002229080093
:100262006A208A110A128000840ACC0A0319CD0A74
:08027200F003031D312908000F
:10027A00FF3083120313CE00FF30CF00FF30D000CF
:10028A00FF309F01C0309F042F09F00070088316C9
:0C029A009F051F179F1783121F140800F8
:1002A600C4213330831603139900181579203D2194
:1002B600D101F32070088312CA007108CB00013007
:1002C600D100F32070088312C4007108C5004A08E3
:1002D600D1004B08D2004630D30089202030D1000F
:1002E6001B214630D1001B213030D1001B21440890
:1002F600D1004508D2004630D30089203530D100E0
:100306001B214630D1001B210D30DA0060200B3056
:10031600FB002630FC005D30FD00FD0B9029FC0B38
:0E0326009029FB0B9029000000005B2999290B
:1003880020308400243083120313F0009F30CC0007
:080398000130CD003121080005
:10033E0041346E3461346C346F3467342034763427
:0E034E0061346C347534653420343D34003431
:02035C000F345C
:0A035E002034203420342034003411
:1003680041346E3461346C346F34673420347634FD
:0E03780061346C347534653420343D34003407
:02400E004A2F37
:00000001FF
