:02000000AB282B
:10000600710DF80DF90D7408F8027508031C750FCB
:10001600F902F00DF10D0F30FC00710DF80DF90D20
:100026007408701C1C28F8027508031C750FF90269
:100036002128F80775080318750FF907F00DF10D5B
:10004600FC0B102870182D287408F807750803187B
:08005600750FF9070000080016
:0E005E00831203132B088A002A088200080070
:10006C002F208A110A128000840AAA0A0319AB0AEB
:08007C00F003031D3628080003
:10008400831203137408003A031D51287508003ABB
:10009400031D5128FF30F0007F30F100AA2883129D
:1000A4000313FD01F901F801710870040319003408
:1000B40071087506FA00FA1BFD09FB01F51F672894
:1000C400F409F509F40A0319F50AF11F6E28F00979
:1000D400F109F00A0319F10A71087504FA00FA1B10
:1000E400832803207B189628FD1F0034F009F109AA
:1000F400F00A0319F10AF809F909F80A0319F90AC7
:100104000034F51F9228F11B8E287108F90070083D
:10011400F800F101F0017628F101F001F00A003451
:10012400F109F009FB0A7328F80A0319F90A74089B
:100134007802031D762875087902031D7628F901D3
:10014400F801F00A0319F10AF11F76280000FF34C0
:020154000800A1
:100156003F3083120313A0000630A1005B30A200DB
:100166004F30A3006630A4006D30A5007D30A60098
:100176000730A7007F30A8006F30A900AC01AD01A1
:10018600AE01AF01B001B101B201B3018316860120
:10019600831286018316870183128701B001B1019C
:1001A6008030F000803031067002031DDC283008F4
:1001B600163C031C31290A30F4000030F5003008E3
:1001C600F0003108F10042207008AE007108AF005F
:1001D6000A30F4000030F5003008F0003108F10074
:1001E60042207808F0007908F1007008AC00710828
:1001F600AD00B201B30180303306F00080307002EA
:10020600031D07293230320203182D2907102E0844
:10021600203E8400000886001A30FC00F830FD00FD
:10022600FD0B1329FC0B13290000071487102C085B
:10023600203E8400000886001A30FC00F830FD00DD
:10024600FD0B2329FC0B232900008714B20A03198E
:10025600B30AFE28B00A0319B10AD328D1283229D5
:02400E004A2F37
:00000001FF
