:020000001628C0
:0E000600831203132B088A002A0882000800C8
:1000140003208A110A128000840AAA0A0319AB0A6F
:08002400F003031D0A28080087
:10002C003F3083120313A0000630A1005B30A20006
:10003C004F30A3006630A4006D30A5007D30A600C3
:10004C000730A7007F30A8006F30A900AC01AD01CC
:10005C00FF308316880086017F30831286000818D3
:10006C0053280330FB000830FC007730FD00FD0BFB
:10007C003D28FC0B3D28FB0B3D28081853288030ED
:10008C002D06F00080307002031D4E2809302C0222
:10009C0003185328AC0A0319AD0A881872280330C8
:1000AC00FB000830FC007730FD00FD0B5B28FC0BDF
:1000BC005B28FB0B5B28881872288030F00080309E
:1000CC002D067002031D6C282C08003C03187228A6
:1000DC000130AC02031CAD032C08203E8400000848
:0600EC008600352878288B
:02400E004A2F37
:00000001FF
