:02000000CA290B
:06000600000000000800EC
:0E000C00213083120313FD00FD0B0A280800AB
:10001A000F3083120313FC004730FD00FD0B132839
:0A002A00FC0B132800000000080082
:1000340083120313F801F9011030FC00710DF80D5F
:10004400F90D7408F8027508031C750FF9020318FA
:1000540032287408F80775080318750FF907031098
:0A006400F00DF10DFC0B2028080040
:10006E0083120313DF1B3D2886123E2886165F1B64
:10007E004228061243280616DF1A472886114828FA
:10008E0086155F1A4C2806114D2806153A18512868
:10009E00061452280610861403208610DF195928DC
:1000AE0086125A2886165F195E2806125F280616D3
:1000BE00DF1863288611642886155F1868280611D4
:1000CE00692806153A186D2806146E28061086142F
:1000DE00032086103A1C75280D207628062008006D
:1000EE00831203133A105A08DF0037203A1408001F
:0E00FE008312031339088A00380882000800B4
:10010C0083120313DD0105305D02031894285D088A
:10011C005C07840020308000DD0A89285D085C07BC
:10012C0084008001DD035D085C07DE000A30F4000A
:10013C00F5015A08F0005B08F1001A207808F0006D
:10014C007908F1003030F0075E08840070088000F8
:10015C000A30F400F5015A08F0005B08F1001A208F
:10016C007008DA007108DB0000307106031DC0282E
:10017C0000307006031DC328C528DD03992808002C
:10018C0083120313D601D7015108D8005208D900A5
:10019C0080305206F00080307002031DD7280030EA
:1001AC0051020318E5280130D6000030D700510861
:1001BC00003CD8005208031C013ED901D902580852
:1001CC00DA005908DB005308DC0086200630D40026
:1001DC000030D5005508003C031DF6285408003C9F
:1001EC000318112954085307F20001305402F0008F
:1001FC000030031C013E5502F100700853078400C7
:10020C000008F00072088400700880000130D402ED
:10021C00031CD503F02853088400203080005608B6
:10022C00570403192F29D401D5015408530784000E
:10023C000008203A031D2629D40A0319D50A1B29C4
:10024C000130D402031CD5035408530784002D300D
:04025C008000080016
:100260004229803083120313D1005529C030D100B8
:1002700055299430D1005529D430D10055298030EA
:10028000D1005529831203135108013A031931296A
:100290005108023A031936295108033A031939293A
:1002A0005108043A03193C293F295203F000510830
:1002B000F0077008D1007008DF0037203A10D40131
:1002C000540853078400000803196E295408530783
:1002D00084000008DA007720D40A60293A14080064
:1002E0007F208A110A128000840AB80A0319B90A09
:0802F000F003031D7029080052
:1002F800831603138610061006118611061286123D
:1003080083128610061086120612861106110D2019
:100318000D200D20861506158614032086100D2045
:100328008614032086100D208614032086100D20C5
:1003380006118614032086100D20861403208610CB
:10034800861186168614032086100D20861206153F
:1003580086140320861006118614032086100D20AB
:1003680086140320861006158614032086100D2097
:10037800061186140320861086160616861506159D
:0C0388008614032086100D203A14080093
:10039400433083120313A0006F30A1006430A20025
:1003A4006530A3002030A4006230A5007930A60097
:1003B4002030A7005330A8006130A9006A30AA0099
:1003C4006530AB006530AC006230AD00AE01533037
:1003D400AF007430B0006530B1007030B2003A3014
:1003E400B3002030B400B501B601B701831686010D
:1003F40088017C210130DF0037200C30DF003720FA
:100404000130D1000130D2002F30D300302102302E
:10041400D1000230D2002030D3003021CF01D001EE
:1004240080305006F00080307002031D1B2AC83053
:100434004F020318CF2A1E303607F000370803187E
:10044400013EF1007008B6007108B7007008D100D1
:100454007108D2003B30D300C6200130D1000530F2
:10046400D2003B30D30030210C3088000630FB0032
:100474001330FC00AD30FD00FD0B3E2AFC0B3E2A80
:10048400FB0B3E2A000000001E303607F000370840
:100494000318013EF1007008B6007108B700700837
:1004A400D1007108D2003B30D300C6200130D10006
:1004B4000530D2003B30D3003021063088000630AE
:1004C400FB001330FC00AD30FD00FD0B672AFC0B74
:1004D400672AFB0B672A000000001E303607F00075
:1004E40037080318013EF1007008B6007108B70020
:1004F4007008D1007108D2003B30D300C62001300F
:10050400D1000530D2003B30D300302103308800C5
:100514000630FB001330FC00AD30FD00FD0B902ACB
:10052400FC0B902AFB0B902A000000001E303607BB
:10053400F00037080318013EF1007008B600710896
:10054400B7007008D1007108D2003B30D300C62038
:100554000130D1000530D2003B30D30030210930C6
:1005640088000630FB001330FC00AD30FD00FD0BAD
:10057400B92AFC0BB92AFB0BB92A00000000370882
:10058400013A031DC72A68303606031DCB2AB6017B
:0E059400B701CF0A0319D00A122A022AD02A70
:02400E004A2F37
:00000001FF
