:020000000328D3
:1000060083160313870188018030831288008701D5
:100016000D30FC00FB30FD00FD0B0F28FC0B0F28FC
:100026000000000040308800FF3087000D30FC00E3
:10003600FB30FD00FD0B1D28FC0B1D2800000000F9
:1000460020308800FF3087000D30FC00FB30FD00BB
:10005600FD0B2B28FC0B2B2800000000103088001D
:10006600183087000D30FC00FB30FD00FD0B3928F1
:10007600FC0B392800000000083088001830870083
:100086000D30FC00FB30FD00FD0B4728FC0B47281C
:100096000000000004308800FF3087000D30FC00AF
:1000A600FB30FD00FD0B5528FC0B55280000000019
:1000B60002308800FF3087000D30FC00FB30FD0069
:1000C600FD0B6328FC0B632800000000013088004C
:1000D60087010D30FC00FB30FD00FD0B7028FC0B8A
:0A00E60070280000000007287728AA
:02400E004A2F37
:00000001FF
