:020000001628C0
:0E0006008312031321088A00200882000800DC
:1000140003208A110A128000840AA00A0319A10A83
:08002400F003031D0A28080087
:10002C00831603138601831286010230A20000306E
:10003C00A3000630A4000030A50022082402F10021
:10004C002308031C013E2502F2007108A600720869
:10005C00A70000307206031D352800307106031D01
:10006C00382891280130A8000030A90080302306E0
:10007C00F000803029067002031D46282808220251
:10008C00031C6A2806140630FB001330FC00AD304C
:10009C00FD00FD0B4F28FC0B4F28FB0B4F280000DD
:1000AC00000006100630FB001330FC00AD30FD00E4
:1000BC00FD0B5E28FC0B5E28FB0B5E28000000008D
:1000CC00A80A0319A90A3C280130A8000030A9008D
:1000DC0080302706F000803029067002031D782836
:1000EC0028082602031C8D2806100B30FB00263036
:1000FC00FC005D30FD00FD0B8128FC0B8128FB0B07
:10010C00812800000000A80A0319A90A6E28A20A77
:08011C000319A30A232891280E
:02400E004A2F37
:00000001FF
