:020000008C284A
:1000060083120313F8010830FC00700DF80D740814
:10001600F80203181028F8070310F00DFC0B082847
:020026000800D0
:0E002800831203132B088A002A0882000800A6
:1000360083120313310803178D0083168C130C14D7
:0800460083120C08F000080011
:10004E0014208A110A128000840AAA0A0319AB0A24
:08005E00F003031D2728080030
:100066000A3083120313F4003108F00003207808E5
:10007600F0007008AC000A30F4003108F0000320EC
:100086000A30F40003207808F0007008AD00071469
:100096007008203E8400000886001A30FC00F83004
:1000A600FD00FD0B5428FC0B542800000710871494
:1000B6002C08203E8400000886001A30FC00F83028
:1000C600FD00FD0B6428FC0B642800008710080067
:1000D600831603178C1C712800006B2883120313E8
:1000E600310803178D000313320803178C0083169B
:1000F6008C130C150B08F0008B1355308D00AA30AD
:100106008D008C14F01B89288B138A288B170C11F1
:020116000800DF
:10011800C03083120313A000F930A100A430A2005C
:10012800B030A3009930A4009230A5008230A60018
:10013800F830A7008030A8009030A9008316860107
:100148008701FF3088008312870107088600023084
:10015800B1001B207008FF3A031DB5280313B00136
:10016800BC2803130230B1001B2070080313B00031
:100178002E08003A031D0D29081CD928D030FC0090
:10018800C930FD00FD0BC628FC0BC6280000000086
:100198000814081CD9283008003C0318D928B003D3
:1001A8000230B1003008B2006B2083120313881CA0
:1001B800F428D030FC00C930FD00FD0BE128FC0B11
:1001C800E128000000008814881CF428FA30300266
:1001D8000318F428B00A0230B1003008B2006B20CE
:1001E80083120313081E09290330FB000830FC00A2
:1001F8007730FD00FD0BFE28FC0BFE28FB0BFE28CC
:100208000816081E09290130AE003008B100332055
:1002180087132E08013A031D45298717300803194B
:100228004529AF0132302F02031832293008B100B6
:100238003320081E30290330FB000830FC007730DB
:10024800FD00FD0B2529FC0B2529FB0B252908168C
:10025800081E3029AE013229AF0A1629B003023030
:10026800B1003008B2006B20831203133008003A43
:10027800031D3F29AE012E08003A031D44294529D4
:060288001229BC284629E2
:02400E004A2F37
:00000001FF
