:020000007E2858
:1000060083120313A001A10180302106F000803085
:100016007002031D10283230200203182B28061404
:100026000430FC00E430FD00FD0B1728FC0B1728FC
:10003600000006103130FC000B30FD00FD0B2128BE
:10004600FC0B212800000000A00A0319A10A0728BA
:020056000800A0
:1000580083120313A001A10180302106F000803033
:100068007002031D39283230200203185428061460
:100078000630FC00B530FD00FD0B4028FC0B402885
:100088000000000006102F30FC003A30FD00FD0B88
:100098004B28FC0B4B280000A00A0319A10A3028A2
:0200A80008004E
:1000AA0083120313A001A10180302106F0008030E1
:1000BA007002031D62283230200203187D280614BC
:1000CA000330FC001230FD00FD0B6928FC0B692887
:1000DA00000006103230FC00DD30FD00FD0B7328F5
:1000EA00FC0B732800000000A00A0319A10A592872
:0200FA000800FC
:1000FC00831603138601FF308700831286010320C9
:10010C00071C89285520871C8C280320071D8F2845
:06011C002C20862890282B
:02400E004A2F37
:00000001FF
