:02000000F12AE3
:0E000600213083120313FD00FD0B07280800B4
:100014000F3083120313FC004730FD00FD0B102842
:0A002400FC0B10280000000008008B
:06002E00000000000800C4
:1000340083160313A71B21288312861323288312F4
:1000440086178316271B2928831206132B2883124D
:1000540006178316A71A31288312861233288312AF
:1000640086168316271A3928831206123B28831210
:1000740006164A183F28061540280611861517202B
:1000840086118316A7194928831286134B288312D5
:1000940086178316271951288312061353288312AF
:1000A40006178316A7185928831286125B28831211
:1000B4008616831627186128831206126328831272
:1000C40006164A186728061568280611861517208B
:0E00D40086114A1C6F280A207028032008009D
:1000E20083120313F801F9011030FC00710DF80DB1
:1000F200F90D7408F8027508031C750FF90203184C
:1001020089287408F80775080318750FF907031092
:0A011200F00DF10DFC0B772808003A
:10011C0083160313A5010530250203189C28250816
:10012C002407840020308000A50A91282508240784
:10013C0084008001A50325082407A6000A30F400DA
:10014C00F5012208F0002308F10071207808F00076
:10015C007908F1003030F007831626088400700807
:10016C0080000A30F400F5012208F0002308F100A9
:10017C00712070088316A2007108A300003071066C
:10018C00031DCA2800307006031DCD28CF28A503F7
:04019C00A12808008E
:0E01A000831203134E088A004D0882000800E7
:1001AE00831203134A1083162208A7001A204A143A
:0201BE00080037
:1001C0000E3083120313FD00FD0BE428000008002D
:1001D000710DF80DF90D7408F8027508031C750F00
:1001E000F902F00DF10D0F30FC00710DF80DF90D55
:1001F0007408701C0129F8027508031C750FF902B8
:100200000629F80775080318750FF907F00DF10DA9
:10021000FC0BF528701812297408F80775080318E4
:08022000750FF907000008004A
:1002280083120313EE01EF0169088316A0008312FD
:100238006A088316A100803083126A06F0008030B5
:100248007002031D29290030690203183A29013078
:10025800EE000030EF006908003C8316A00083120E
:100268006A08031C013E8316A101A1028316200817
:10027800A2002108A30083126B088316A4008E2015
:1002880006308312EC000030ED006D08003C031DC1
:100298004F296C08003C03186A296C086B07F200A8
:1002A80001306C02F0000030031C013E6D02F100C9
:1002B80070086B0784000008F0007208840070085A
:1002C80080000130EC02031CED0349296B0884000F
:1002D800203080006E086F0403198829EC01ED01B5
:1002E8006C086B0784000008203A031D7F29EC0A7C
:1002F8000319ED0A74290130EC02031CED036C08A4
:0A0308006B0784002D308000080010
:10031200831203137408003A031D98297508003AE2
:10032200031D9829FF30F0007F30F100F12983127C
:100332000313FD01F901F801710870040319003477
:1003420071087506FA00FA1BFD09FB01F51FAE29BB
:10035200F409F509F40A0319F50AF11FB529F009A0
:10036200F109F00A0319F10A71087504FA00FA1B7F
:10037200CA29E8207B18DD29FD1F0034F009F109A4
:10038200F00A0319F10AF809F909F80A0319F90A36
:100392000034F51FD929F11BD5297108F90070081D
:1003A200F800F101F001BD29F101F001F00A003479
:1003B200F109F009FB0ABA29F80A0319F90A7408C3
:1003C2007802031DBD2975087902031DBD29F901B3
:1003D200F801F00A0319F10AF11FBD290000FF34E8
:0203E200080011
:1003E40083120313FB01FA01F9018030F800F10CC8
:1003F400F00C031C062A7408F90775080318750F16
:10040400FA070318FB0A0310F01F0E2A7408FA07F0
:1004140075080318750FFB07FB0CFA0CF90CF80CA4
:10042400031CF9297B08F3007A08F2007908F1002B
:060434007808F00008004A
:10043A002F2A803083120313E900422AC030E900D0
:10044A00422A9430E900422AD430E900422A803014
:10045A00E900422A831203136908013A03191E2A82
:10046A006908023A0319232A6908033A0319262A52
:10047A006908043A0319292A2C2A6A03F000690830
:10048A00F0077008E90070088316A7001A204A10BE
:10049A00EC016C086B078400000803195D2A6C08DC
:1004AA006B07840000088316A200D720EC0A4E2AA4
:0404BA004A140800D8
:1004BE0083160313981690308312980083168717AD
:1004CE00071383128C1E6E2A1A08F000682A080081
:1004DE00831603138611061106128612061386134F
:1004EE0083128611061186130613861206120A202F
:1004FE000A200A20861606168615172086110A204F
:10050E008615172086110A208615172086110A20B7
:10051E0006128615172086110A20861517208611B9
:10052E00861286178615172086110A208613061640
:10053E0086151720861106128615172086110A2099
:10054E0086151720861106168615172086110A2085
:10055E00061286151720861186170617861606169A
:0C056E008615172086110A204A14080088
:10057A00831203139F01C0309F043509F0007008ED
:10058A0083169F051F179F1783126908F000F00D45
:10059A007010F00D7010F00D701070089F041F1489
:1005AA00E0201F151F1DDB2A0000D72A1F101E0876
:1005BA00F100F00183161E08F0040030F10408006F
:1005CA00D0208A110A128000840ACD0A0319CE0AA1
:0805DA00F003031DE52A0800EF
:1005E2006A23333083160313990018155F226F2292
:1005F20001308316A7001A200C308316A7001A2098
:10060200CB01CC01E901BD2270088312E700710819
:10061200E8006708CF006808D0006708F0006808A3
:10062200F1000930F4000030F500F2210530F40049
:100632000030F500892120307007E50071080318A9
:10064200013EE6006708E9006808EA005130EB0065
:1006520014216508E9006608EA003630EB0014212F
:100662000130E9000130EA002030EB001D220130A8
:10067200E9000A30EA005130EB001D220230E900A5
:100682000130EA002930EB001D220230E9000A3075
:0C069200EA003630EB001D22032B4E2B3B
:1006D40020308400163083120313F0005430CD0010
:0806E4000330CE00E5220800FE
:1006A800433465346C3473346934753473343A3490
:0206B80000340C
:1006BA00463461346834723465346E34683465346F
:0806CA00693474343A34003441
:0206D2000F34E3
:02400E004A2F37
:00000001FF
